:010000003FC0
:010001003FBF
:010002003FBE
:010003003FBD
:010004003FBC
:010005003FBB
:010006003FBA
:010007003FB9
:010008003FB8
:010009003FB7
:01000A003FB6
:01000B003FB5
:01000C003FB4
:01000D003FB3
:01000E003FB2
:01000F003FB1
:010010003FB0
:010011003FAF
:010012003FAE
:010013003FAD
:010014003FAC
:010015003FAB
:010016003FAA
:010017003FA9
:010018003FA8
:010019003FA7
:01001A003FA6
:01001B003FA5
:01001C003FA4
:01001D003FA3
:01001E003FA2
:01001F003FA1
:010020003FA0
:010021003F9F
:010022003F9E
:010023003F9D
:010024003F9C
:010025003F9B
:010026003F9A
:010027003F99
:010028003F98
:010029003F97
:01002A003F96
:01002B003F95
:01002C003F94
:01002D003F93
:01002E003F92
:01002F003F91
:010030003F90
:010031003F8F
:010032003F8E
:010033003F8D
:010034003F8C
:010035003F8B
:010036003F8A
:010037003F89
:010038003F88
:010039003F87
:01003A003F86
:01003B003E86
:01003C003E85
:01003D003E84
:01003E003E83
:01003F003E82
:010040003E81
:010041003E80
:010042003E7F
:010043003E7E
:010044003E7D
:010045003E7C
:010046003E7B
:010047003E7A
:010048003E79
:010049003E78
:01004A003E77
:01004B003E76
:01004C003E75
:01004D003E74
:01004E003E73
:01004F003E72
:010050003E71
:010051003E70
:010052003E6F
:010053003E6E
:010054003E6D
:010055003E6C
:010056003E6B
:010057003E6A
:010058003E69
:010059003E68
:01005A003E67
:01005B003E66
:01005C003E65
:01005D003E64
:01005E003E63
:01005F003E62
:010060003E61
:010061003E60
:010062003E5F
:010063003E5E
:010064003E5D
:010065003D5D
:010066003D5C
:010067003D5B
:010068003D5A
:010069003D59
:01006A003D58
:01006B003D57
:01006C003D56
:01006D003D55
:01006E003D54
:01006F003D53
:010070003D52
:010071003D51
:010072003D50
:010073003D4F
:010074003D4E
:010075003D4D
:010076003D4C
:010077003D4B
:010078003D4A
:010079003D49
:01007A003D48
:01007B003D47
:01007C003D46
:01007D003D45
:01007E003D44
:01007F003D43
:010080003D42
:010081003D41
:010082003D40
:010083003C40
:010084003C3F
:010085003C3E
:010086003C3D
:010087003C3C
:010088003C3B
:010089003C3A
:01008A003C39
:01008B003C38
:01008C003C37
:01008D003C36
:01008E003C35
:01008F003C34
:010090003C33
:010091003C32
:010092003C31
:010093003C30
:010094003C2F
:010095003C2E
:010096003C2D
:010097003C2C
:010098003C2B
:010099003C2A
:01009A003C29
:01009B003C28
:01009C003B28
:01009D003B27
:01009E003B26
:01009F003B25
:0100A0003B24
:0100A1003B23
:0100A2003B22
:0100A3003B21
:0100A4003B20
:0100A5003B1F
:0100A6003B1E
:0100A7003B1D
:0100A8003B1C
:0100A9003B1B
:0100AA003B1A
:0100AB003B19
:0100AC003B18
:0100AD003B17
:0100AE003B16
:0100AF003B15
:0100B0003B14
:0100B1003A14
:0100B2003A13
:0100B3003A12
:0100B4003A11
:0100B5003A10
:0100B6003A0F
:0100B7003A0E
:0100B8003A0D
:0100B9003A0C
:0100BA003A0B
:0100BB003A0A
:0100BC003A09
:0100BD003A08
:0100BE003A07
:0100BF003A06
:0100C0003A05
:0100C1003A04
:0100C2003A03
:0100C3003A02
:0100C4003902
:0100C5003901
:0100C6003900
:0100C70039FF
:0100C80039FE
:0100C90039FD
:0100CA0039FC
:0100CB0039FB
:0100CC0039FA
:0100CD0039F9
:0100CE0039F8
:0100CF0039F7
:0100D00039F6
:0100D10039F5
:0100D20039F4
:0100D30039F3
:0100D40039F2
:0100D50039F1
:0100D60038F1
:0100D70038F0
:0100D80038EF
:0100D90038EE
:0100DA0038ED
:0100DB0038EC
:0100DC0038EB
:0100DD0038EA
:0100DE0038E9
:0100DF0038E8
:0100E00038E7
:0100E10038E6
:0100E20038E5
:0100E30038E4
:0100E40038E3
:0100E50038E2
:0100E60037E2
:0100E70037E1
:0100E80037E0
:0100E90037DF
:0100EA0037DE
:0100EB0037DD
:0100EC0037DC
:0100ED0037DB
:0100EE0037DA
:0100EF0037D9
:0100F00037D8
:0100F10037D7
:0100F20037D6
:0100F30037D5
:0100F40037D4
:0100F50037D3
:0100F60036D3
:0100F70036D2
:0100F80036D1
:0100F90036D0
:0100FA0036CF
:0100FB0036CE
:0100FC0036CD
:0100FD0036CC
:0100FE0036CB
:0100FF0036CA
:0101000036C8
:0101010036C7
:0101020036C6
:0101030036C5
:0101040035C5
:0101050035C4
:0101060035C3
:0101070035C2
:0101080035C1
:0101090035C0
:01010A0035BF
:01010B0035BE
:01010C0035BD
:01010D0035BC
:01010E0035BB
:01010F0035BA
:0101100035B9
:0101110035B8
:0101120035B7
:0101130034B7
:0101140034B6
:0101150034B5
:0101160034B4
:0101170034B3
:0101180034B2
:0101190034B1
:01011A0034B0
:01011B0034AF
:01011C0034AE
:01011D0034AD
:01011E0034AC
:01011F0034AB
:0101200033AB
:0101210033AA
:0101220033A9
:0101230033A8
:0101240033A7
:0101250033A6
:0101260033A5
:0101270033A4
:0101280033A3
:0101290033A2
:01012A0033A1
:01012B0033A0
:01012C00339F
:01012D00329F
:01012E00329E
:01012F00329D
:01013000329C
:01013100329B
:01013200329A
:010133003299
:010134003298
:010135003297
:010136003296
:010137003295
:010138003294
:010139003293
:01013A003193
:01013B003192
:01013C003191
:01013D003190
:01013E00318F
:01013F00318E
:01014000318D
:01014100318C
:01014200318B
:01014300318A
:010144003189
:010145003188
:010146003187
:010147003087
:010148003086
:010149003085
:01014A003084
:01014B003083
:01014C003082
:01014D003081
:01014E003080
:01014F00307F
:01015000307E
:01015100307D
:01015200307C
:010153002F7C
:010154002F7B
:010155002F7A
:010156002F79
:010157002F78
:010158002F77
:010159002F76
:01015A002F75
:01015B002F74
:01015C002F73
:01015D002F72
:01015E002F71
:01015F002E71
:010160002E70
:010161002E6F
:010162002E6E
:010163002E6D
:010164002E6C
:010165002E6B
:010166002E6A
:010167002E69
:010168002E68
:010169002E67
:01016A002D67
:01016B002D66
:01016C002D65
:01016D002D64
:01016E002D63
:01016F002D62
:010170002D61
:010171002D60
:010172002D5F
:010173002D5E
:010174002D5D
:010175002D5C
:010176002C5C
:010177002C5B
:010178002C5A
:010179002C59
:01017A002C58
:01017B002C57
:01017C002C56
:01017D002C55
:01017E002C54
:01017F002C53
:010180002C52
:010181002B52
:010182002B51
:010183002B50
:010184002B4F
:010185002B4E
:010186002B4D
:010187002B4C
:010188002B4B
:010189002B4A
:01018A002B49
:01018B002B48
:01018C002A48
:01018D002A47
:01018E002A46
:01018F002A45
:010190002A44
:010191002A43
:010192002A42
:010193002A41
:010194002A40
:010195002A3F
:010196002A3E
:01019700293E
:01019800293D
:01019900293C
:01019A00293B
:01019B00293A
:01019C002939
:01019D002938
:01019E002937
:01019F002936
:0101A0002935
:0101A1002934
:0101A2002834
:0101A3002833
:0101A4002832
:0101A5002831
:0101A6002830
:0101A700282F
:0101A800282E
:0101A900282D
:0101AA00282C
:0101AB00282B
:0101AC00282A
:0101AD00272A
:0101AE002729
:0101AF002728
:0101B0002727
:0101B1002726
:0101B2002725
:0101B3002724
:0101B4002723
:0101B5002722
:0101B6002721
:0101B7002621
:0101B8002620
:0101B900261F
:0101BA00261E
:0101BB00261D
:0101BC00261C
:0101BD00261B
:0101BE00261A
:0101BF002619
:0101C0002618
:0101C1002617
:0101C2002517
:0101C3002516
:0101C4002515
:0101C5002514
:0101C6002513
:0101C7002512
:0101C8002511
:0101C9002510
:0101CA00250F
:0101CB00250E
:0101CC00250D
:0101CD00240D
:0101CE00240C
:0101CF00240B
:0101D000240A
:0101D1002409
:0101D2002408
:0101D3002407
:0101D4002406
:0101D5002405
:0101D6002404
:0101D7002304
:0101D8002303
:0101D9002302
:0101DA002301
:0101DB002300
:0101DC0023FF
:0101DD0023FE
:0101DE0023FD
:0101DF0023FC
:0101E00023FB
:0101E10022FB
:0101E20022FA
:0101E30022F9
:0101E40022F8
:0101E50022F7
:0101E60022F6
:0101E70022F5
:0101E80022F4
:0101E90022F3
:0101EA0022F2
:0101EB0022F1
:0101EC0021F1
:0101ED0021F0
:0101EE0021EF
:0101EF0021EE
:0101F00021ED
:0101F10021EC
:0101F20021EB
:0101F30021EA
:0101F40021E9
:0101F50021E8
:0101F60020E8
:0101F70020E7
:0101F80020E6
:0101F90020E5
:0101FA0020E4
:0101FB0020E3
:0101FC0020E2
:0101FD0020E1
:0101FE0020E0
:0101FF0020DF
:0102000020DD
:010201001FDD
:010202001FDC
:010203001FDB
:010204001FDA
:010205001FD9
:010206001FD8
:010207001FD7
:010208001FD6
:010209001FD5
:01020A001FD4
:01020B001ED4
:01020C001ED3
:01020D001ED2
:01020E001ED1
:01020F001ED0
:010210001ECF
:010211001ECE
:010212001ECD
:010213001ECC
:010214001ECB
:010215001DCB
:010216001DCA
:010217001DC9
:010218001DC8
:010219001DC7
:01021A001DC6
:01021B001DC5
:01021C001DC4
:01021D001DC3
:01021E001DC2
:01021F001DC1
:010220001CC1
:010221001CC0
:010222001CBF
:010223001CBE
:010224001CBD
:010225001CBC
:010226001CBB
:010227001CBA
:010228001CB9
:010229001CB8
:01022A001BB8
:01022B001BB7
:01022C001BB6
:01022D001BB5
:01022E001BB4
:01022F001BB3
:010230001BB2
:010231001BB1
:010232001BB0
:010233001BAF
:010234001AAF
:010235001AAE
:010236001AAD
:010237001AAC
:010238001AAB
:010239001AAA
:01023A001AA9
:01023B001AA8
:01023C001AA7
:01023D001AA6
:01023E001AA5
:01023F0019A5
:0102400019A4
:0102410019A3
:0102420019A2
:0102430019A1
:0102440019A0
:01024500199F
:01024600199E
:01024700199D
:01024800199C
:01024900199B
:01024A00189B
:01024B00189A
:01024C001899
:01024D001898
:01024E001897
:01024F001896
:010250001895
:010251001894
:010252001893
:010253001892
:010254001792
:010255001791
:010256001790
:01025700178F
:01025800178E
:01025900178D
:01025A00178C
:01025B00178B
:01025C00178A
:01025D001789
:01025E001788
:01025F001688
:010260001687
:010261001686
:010262001685
:010263001684
:010264001683
:010265001682
:010266001681
:010267001680
:01026800167F
:01026900167E
:01026A00157E
:01026B00157D
:01026C00157C
:01026D00157B
:01026E00157A
:01026F001579
:010270001578
:010271001577
:010272001576
:010273001575
:010274001574
:010275001474
:010276001473
:010277001472
:010278001471
:010279001470
:01027A00146F
:01027B00146E
:01027C00146D
:01027D00146C
:01027E00146B
:01027F00146A
:01028000136A
:010281001369
:010282001368
:010283001367
:010284001366
:010285001365
:010286001364
:010287001363
:010288001362
:010289001361
:01028A001360
:01028B001260
:01028C00125F
:01028D00125E
:01028E00125D
:01028F00125C
:01029000125B
:01029100125A
:010292001259
:010293001258
:010294001257
:010295001256
:010296001255
:010297001155
:010298001154
:010299001153
:01029A001152
:01029B001151
:01029C001150
:01029D00114F
:01029E00114E
:01029F00114D
:0102A000114C
:0102A100114B
:0102A200104B
:0102A300104A
:0102A4001049
:0102A5001048
:0102A6001047
:0102A7001046
:0102A8001045
:0102A9001044
:0102AA001043
:0102AB001042
:0102AC001041
:0102AD001040
:0102AE000F40
:0102AF000F3F
:0102B0000F3E
:0102B1000F3D
:0102B2000F3C
:0102B3000F3B
:0102B4000F3A
:0102B5000F39
:0102B6000F38
:0102B7000F37
:0102B8000F36
:0102B9000F35
:0102BA000E35
:0102BB000E34
:0102BC000E33
:0102BD000E32
:0102BE000E31
:0102BF000E30
:0102C0000E2F
:0102C1000E2E
:0102C2000E2D
:0102C3000E2C
:0102C4000E2B
:0102C5000E2A
:0102C6000E29
:0102C7000D29
:0102C8000D28
:0102C9000D27
:0102CA000D26
:0102CB000D25
:0102CC000D24
:0102CD000D23
:0102CE000D22
:0102CF000D21
:0102D0000D20
:0102D1000D1F
:0102D2000D1E
:0102D3000D1D
:0102D4000C1D
:0102D5000C1C
:0102D6000C1B
:0102D7000C1A
:0102D8000C19
:0102D9000C18
:0102DA000C17
:0102DB000C16
:0102DC000C15
:0102DD000C14
:0102DE000C13
:0102DF000C12
:0102E0000C11
:0102E1000B11
:0102E2000B10
:0102E3000B0F
:0102E4000B0E
:0102E5000B0D
:0102E6000B0C
:0102E7000B0B
:0102E8000B0A
:0102E9000B09
:0102EA000B08
:0102EB000B07
:0102EC000B06
:0102ED000B05
:0102EE000A05
:0102EF000A04
:0102F0000A03
:0102F1000A02
:0102F2000A01
:0102F3000A00
:0102F4000AFF
:0102F5000AFE
:0102F6000AFD
:0102F7000AFC
:0102F8000AFB
:0102F9000AFA
:0102FA000AF9
:0102FB000AF8
:0102FC000AF7
:0102FD0009F7
:0102FE0009F6
:0102FF0009F5
:0103000009F3
:0103010009F2
:0103020009F1
:0103030009F0
:0103040009EF
:0103050009EE
:0103060009ED
:0103070009EC
:0103080009EB
:0103090009EA
:01030A0009E9
:01030B0008E9
:01030C0008E8
:01030D0008E7
:01030E0008E6
:01030F0008E5
:0103100008E4
:0103110008E3
:0103120008E2
:0103130008E1
:0103140008E0
:0103150008DF
:0103160008DE
:0103170008DD
:0103180008DC
:0103190008DB
:01031A0008DA
:01031B0007DA
:01031C0007D9
:01031D0007D8
:01031E0007D7
:01031F0007D6
:0103200007D5
:0103210007D4
:0103220007D3
:0103230007D2
:0103240007D1
:0103250007D0
:0103260007CF
:0103270007CE
:0103280007CD
:0103290007CC
:01032A0007CB
:01032B0006CB
:01032C0006CA
:01032D0006C9
:01032E0006C8
:01032F0006C7
:0103300006C6
:0103310006C5
:0103320006C4
:0103330006C3
:0103340006C2
:0103350006C1
:0103360006C0
:0103370006BF
:0103380006BE
:0103390006BD
:01033A0006BC
:01033B0006BB
:01033C0006BA
:01033D0005BA
:01033E0005B9
:01033F0005B8
:0103400005B7
:0103410005B6
:0103420005B5
:0103430005B4
:0103440005B3
:0103450005B2
:0103460005B1
:0103470005B0
:0103480005AF
:0103490005AE
:01034A0005AD
:01034B0005AC
:01034C0005AB
:01034D0005AA
:01034E0005A9
:01034F0005A8
:0103500004A8
:0103510004A7
:0103520004A6
:0103530004A5
:0103540004A4
:0103550004A3
:0103560004A2
:0103570004A1
:0103580004A0
:01035900049F
:01035A00049E
:01035B00049D
:01035C00049C
:01035D00049B
:01035E00049A
:01035F000499
:010360000498
:010361000497
:010362000496
:010363000495
:010364000494
:010365000394
:010366000393
:010367000392
:010368000391
:010369000390
:01036A00038F
:01036B00038E
:01036C00038D
:01036D00038C
:01036E00038B
:01036F00038A
:010370000389
:010371000388
:010372000387
:010373000386
:010374000385
:010375000384
:010376000383
:010377000382
:010378000381
:010379000380
:01037A00037F
:01037B00037E
:01037C00037D
:01037D00037C
:01037E00027C
:01037F00027B
:01038000027A
:010381000279
:010382000278
:010383000277
:010384000276
:010385000275
:010386000274
:010387000273
:010388000272
:010389000271
:01038A000270
:01038B00026F
:01038C00026E
:01038D00026D
:01038E00026C
:01038F00026B
:01039000026A
:010391000269
:010392000268
:010393000267
:010394000266
:010395000265
:010396000264
:010397000263
:010398000262
:010399000261
:01039A000260
:01039B00025F
:01039C00015F
:01039D00015E
:01039E00015D
:01039F00015C
:0103A000015B
:0103A100015A
:0103A2000159
:0103A3000158
:0103A4000157
:0103A5000156
:0103A6000155
:0103A7000154
:0103A8000153
:0103A9000152
:0103AA000151
:0103AB000150
:0103AC00014F
:0103AD00014E
:0103AE00014D
:0103AF00014C
:0103B000014B
:0103B100014A
:0103B2000149
:0103B3000148
:0103B4000147
:0103B5000146
:0103B6000145
:0103B7000144
:0103B8000143
:0103B9000142
:0103BA000141
:0103BB000140
:0103BC00013F
:0103BD00013E
:0103BE00013D
:0103BF00013C
:0103C000013B
:0103C100013A
:0103C2000139
:0103C3000138
:0103C4000137
:0103C5000136
:0103C6000036
:0103C7000035
:0103C8000034
:0103C9000033
:0103CA000032
:0103CB000031
:0103CC000030
:0103CD00002F
:0103CE00002E
:0103CF00002D
:0103D000002C
:0103D100002B
:0103D200002A
:0103D3000029
:0103D4000028
:0103D5000027
:0103D6000026
:0103D7000025
:0103D8000024
:0103D9000023
:0103DA000022
:0103DB000021
:0103DC000020
:0103DD00001F
:0103DE00001E
:0103DF00001D
:0103E000001C
:0103E100001B
:0103E200001A
:0103E3000019
:0103E4000018
:0103E5000017
:0103E6000016
:0103E7000015
:0103E8000014
:0103E9000013
:0103EA000012
:0103EB000011
:0103EC000010
:0103ED00000F
:0103EE00000E
:0103EF00000D
:0103F000000C
:0103F100000B
:0103F200000A
:0103F3000009
:0103F4000008
:0103F5000007
:0103F6000006
:0103F7000005
:0103F8000004
:0103F9000003
:0103FA000002
:0103FB000001
:0103FC000000
:0103FD0000FF
:0103FE0000FE
:0103FF0000FD
:0104000000FB
:0104010000FA
:0104020000F9
:0104030000F8
:0104040000F7
:0104050000F6
:0104060000F5
:0104070000F4
:0104080000F3
:0104090000F2
:01040A0000F1
:01040B0000F0
:01040C0000EF
:01040D0000EE
:01040E0000ED
:01040F0000EC
:0104100000EB
:0104110000EA
:0104120000E9
:0104130000E8
:0104140000E7
:0104150000E6
:0104160000E5
:0104170000E4
:0104180000E3
:0104190000E2
:01041A0000E1
:01041B0000E0
:01041C0000DF
:01041D0000DE
:01041E0000DD
:01041F0000DC
:0104200000DB
:0104210000DA
:0104220000D9
:0104230000D8
:0104240000D7
:0104250000D6
:0104260000D5
:0104270000D4
:0104280000D3
:0104290000D2
:01042A0000D1
:01042B0000D0
:01042C0000CF
:01042D0000CE
:01042E0000CD
:01042F0000CC
:0104300000CB
:0104310000CA
:0104320000C9
:0104330000C8
:0104340000C7
:0104350000C6
:0104360000C5
:0104370000C4
:0104380000C3
:0104390000C2
:01043A0000C1
:01043B0001BF
:01043C0001BE
:01043D0001BD
:01043E0001BC
:01043F0001BB
:0104400001BA
:0104410001B9
:0104420001B8
:0104430001B7
:0104440001B6
:0104450001B5
:0104460001B4
:0104470001B3
:0104480001B2
:0104490001B1
:01044A0001B0
:01044B0001AF
:01044C0001AE
:01044D0001AD
:01044E0001AC
:01044F0001AB
:0104500001AA
:0104510001A9
:0104520001A8
:0104530001A7
:0104540001A6
:0104550001A5
:0104560001A4
:0104570001A3
:0104580001A2
:0104590001A1
:01045A0001A0
:01045B00019F
:01045C00019E
:01045D00019D
:01045E00019C
:01045F00019B
:01046000019A
:010461000199
:010462000198
:010463000197
:010464000196
:010465000294
:010466000293
:010467000292
:010468000291
:010469000290
:01046A00028F
:01046B00028E
:01046C00028D
:01046D00028C
:01046E00028B
:01046F00028A
:010470000289
:010471000288
:010472000287
:010473000286
:010474000285
:010475000284
:010476000283
:010477000282
:010478000281
:010479000280
:01047A00027F
:01047B00027E
:01047C00027D
:01047D00027C
:01047E00027B
:01047F00027A
:010480000279
:010481000278
:010482000277
:010483000375
:010484000374
:010485000373
:010486000372
:010487000371
:010488000370
:01048900036F
:01048A00036E
:01048B00036D
:01048C00036C
:01048D00036B
:01048E00036A
:01048F000369
:010490000368
:010491000367
:010492000366
:010493000365
:010494000364
:010495000363
:010496000362
:010497000361
:010498000360
:01049900035F
:01049A00035E
:01049B00035D
:01049C00045B
:01049D00045A
:01049E000459
:01049F000458
:0104A0000457
:0104A1000456
:0104A2000455
:0104A3000454
:0104A4000453
:0104A5000452
:0104A6000451
:0104A7000450
:0104A800044F
:0104A900044E
:0104AA00044D
:0104AB00044C
:0104AC00044B
:0104AD00044A
:0104AE000449
:0104AF000448
:0104B0000447
:0104B1000545
:0104B2000544
:0104B3000543
:0104B4000542
:0104B5000541
:0104B6000540
:0104B700053F
:0104B800053E
:0104B900053D
:0104BA00053C
:0104BB00053B
:0104BC00053A
:0104BD000539
:0104BE000538
:0104BF000537
:0104C0000536
:0104C1000535
:0104C2000534
:0104C3000533
:0104C4000631
:0104C5000630
:0104C600062F
:0104C700062E
:0104C800062D
:0104C900062C
:0104CA00062B
:0104CB00062A
:0104CC000629
:0104CD000628
:0104CE000627
:0104CF000626
:0104D0000625
:0104D1000624
:0104D2000623
:0104D3000622
:0104D4000621
:0104D5000620
:0104D600071E
:0104D700071D
:0104D800071C
:0104D900071B
:0104DA00071A
:0104DB000719
:0104DC000718
:0104DD000717
:0104DE000716
:0104DF000715
:0104E0000714
:0104E1000713
:0104E2000712
:0104E3000711
:0104E4000710
:0104E500070F
:0104E600080D
:0104E700080C
:0104E800080B
:0104E900080A
:0104EA000809
:0104EB000808
:0104EC000807
:0104ED000806
:0104EE000805
:0104EF000804
:0104F0000803
:0104F1000802
:0104F2000801
:0104F3000800
:0104F40008FF
:0104F50008FE
:0104F60009FC
:0104F70009FB
:0104F80009FA
:0104F90009F9
:0104FA0009F8
:0104FB0009F7
:0104FC0009F6
:0104FD0009F5
:0104FE0009F4
:0104FF0009F3
:0105000009F1
:0105010009F0
:0105020009EF
:0105030009EE
:010504000AEC
:010505000AEB
:010506000AEA
:010507000AE9
:010508000AE8
:010509000AE7
:01050A000AE6
:01050B000AE5
:01050C000AE4
:01050D000AE3
:01050E000AE2
:01050F000AE1
:010510000AE0
:010511000ADF
:010512000ADE
:010513000BDC
:010514000BDB
:010515000BDA
:010516000BD9
:010517000BD8
:010518000BD7
:010519000BD6
:01051A000BD5
:01051B000BD4
:01051C000BD3
:01051D000BD2
:01051E000BD1
:01051F000BD0
:010520000CCE
:010521000CCD
:010522000CCC
:010523000CCB
:010524000CCA
:010525000CC9
:010526000CC8
:010527000CC7
:010528000CC6
:010529000CC5
:01052A000CC4
:01052B000CC3
:01052C000CC2
:01052D000DC0
:01052E000DBF
:01052F000DBE
:010530000DBD
:010531000DBC
:010532000DBB
:010533000DBA
:010534000DB9
:010535000DB8
:010536000DB7
:010537000DB6
:010538000DB5
:010539000DB4
:01053A000EB2
:01053B000EB1
:01053C000EB0
:01053D000EAF
:01053E000EAE
:01053F000EAD
:010540000EAC
:010541000EAB
:010542000EAA
:010543000EA9
:010544000EA8
:010545000EA7
:010546000EA6
:010547000FA4
:010548000FA3
:010549000FA2
:01054A000FA1
:01054B000FA0
:01054C000F9F
:01054D000F9E
:01054E000F9D
:01054F000F9C
:010550000F9B
:010551000F9A
:010552000F99
:010553001097
:010554001096
:010555001095
:010556001094
:010557001093
:010558001092
:010559001091
:01055A001090
:01055B00108F
:01055C00108E
:01055D00108D
:01055E00108C
:01055F00118A
:010560001189
:010561001188
:010562001187
:010563001186
:010564001185
:010565001184
:010566001183
:010567001182
:010568001181
:010569001180
:01056A00127E
:01056B00127D
:01056C00127C
:01056D00127B
:01056E00127A
:01056F001279
:010570001278
:010571001277
:010572001276
:010573001275
:010574001274
:010575001273
:010576001371
:010577001370
:01057800136F
:01057900136E
:01057A00136D
:01057B00136C
:01057C00136B
:01057D00136A
:01057E001369
:01057F001368
:010580001367
:010581001465
:010582001464
:010583001463
:010584001462
:010585001461
:010586001460
:01058700145F
:01058800145E
:01058900145D
:01058A00145C
:01058B00145B
:01058C001559
:01058D001558
:01058E001557
:01058F001556
:010590001555
:010591001554
:010592001553
:010593001552
:010594001551
:010595001550
:01059600154F
:01059700164D
:01059800164C
:01059900164B
:01059A00164A
:01059B001649
:01059C001648
:01059D001647
:01059E001646
:01059F001645
:0105A0001644
:0105A1001643
:0105A2001741
:0105A3001740
:0105A400173F
:0105A500173E
:0105A600173D
:0105A700173C
:0105A800173B
:0105A900173A
:0105AA001739
:0105AB001738
:0105AC001737
:0105AD001835
:0105AE001834
:0105AF001833
:0105B0001832
:0105B1001831
:0105B2001830
:0105B300182F
:0105B400182E
:0105B500182D
:0105B600182C
:0105B700192A
:0105B8001929
:0105B9001928
:0105BA001927
:0105BB001926
:0105BC001925
:0105BD001924
:0105BE001923
:0105BF001922
:0105C0001921
:0105C1001920
:0105C2001A1E
:0105C3001A1D
:0105C4001A1C
:0105C5001A1B
:0105C6001A1A
:0105C7001A19
:0105C8001A18
:0105C9001A17
:0105CA001A16
:0105CB001A15
:0105CC001A14
:0105CD001B12
:0105CE001B11
:0105CF001B10
:0105D0001B0F
:0105D1001B0E
:0105D2001B0D
:0105D3001B0C
:0105D4001B0B
:0105D5001B0A
:0105D6001B09
:0105D7001C07
:0105D8001C06
:0105D9001C05
:0105DA001C04
:0105DB001C03
:0105DC001C02
:0105DD001C01
:0105DE001C00
:0105DF001CFF
:0105E0001CFE
:0105E1001DFC
:0105E2001DFB
:0105E3001DFA
:0105E4001DF9
:0105E5001DF8
:0105E6001DF7
:0105E7001DF6
:0105E8001DF5
:0105E9001DF4
:0105EA001DF3
:0105EB001DF2
:0105EC001EF0
:0105ED001EEF
:0105EE001EEE
:0105EF001EED
:0105F0001EEC
:0105F1001EEB
:0105F2001EEA
:0105F3001EE9
:0105F4001EE8
:0105F5001EE7
:0105F6001FE5
:0105F7001FE4
:0105F8001FE3
:0105F9001FE2
:0105FA001FE1
:0105FB001FE0
:0105FC001FDF
:0105FD001FDE
:0105FE001FDD
:0105FF001FDC
:010600001FDA
:0106010020D8
:0106020020D7
:0106030020D6
:0106040020D5
:0106050020D4
:0106060020D3
:0106070020D2
:0106080020D1
:0106090020D0
:01060A0020CF
:01060B0021CD
:01060C0021CC
:01060D0021CB
:01060E0021CA
:01060F0021C9
:0106100021C8
:0106110021C7
:0106120021C6
:0106130021C5
:0106140021C4
:0106150022C2
:0106160022C1
:0106170022C0
:0106180022BF
:0106190022BE
:01061A0022BD
:01061B0022BC
:01061C0022BB
:01061D0022BA
:01061E0022B9
:01061F0022B8
:0106200023B6
:0106210023B5
:0106220023B4
:0106230023B3
:0106240023B2
:0106250023B1
:0106260023B0
:0106270023AF
:0106280023AE
:0106290023AD
:01062A0024AB
:01062B0024AA
:01062C0024A9
:01062D0024A8
:01062E0024A7
:01062F0024A6
:0106300024A5
:0106310024A4
:0106320024A3
:0106330024A2
:0106340025A0
:01063500259F
:01063600259E
:01063700259D
:01063800259C
:01063900259B
:01063A00259A
:01063B002599
:01063C002598
:01063D002597
:01063E002596
:01063F002694
:010640002693
:010641002692
:010642002691
:010643002690
:01064400268F
:01064500268E
:01064600268D
:01064700268C
:01064800268B
:01064900268A
:01064A002788
:01064B002787
:01064C002786
:01064D002785
:01064E002784
:01064F002783
:010650002782
:010651002781
:010652002780
:01065300277F
:01065400287D
:01065500287C
:01065600287B
:01065700287A
:010658002879
:010659002878
:01065A002877
:01065B002876
:01065C002875
:01065D002874
:01065E002873
:01065F002971
:010660002970
:01066100296F
:01066200296E
:01066300296D
:01066400296C
:01066500296B
:01066600296A
:010667002969
:010668002968
:010669002967
:01066A002A65
:01066B002A64
:01066C002A63
:01066D002A62
:01066E002A61
:01066F002A60
:010670002A5F
:010671002A5E
:010672002A5D
:010673002A5C
:010674002A5B
:010675002B59
:010676002B58
:010677002B57
:010678002B56
:010679002B55
:01067A002B54
:01067B002B53
:01067C002B52
:01067D002B51
:01067E002B50
:01067F002B4F
:010680002C4D
:010681002C4C
:010682002C4B
:010683002C4A
:010684002C49
:010685002C48
:010686002C47
:010687002C46
:010688002C45
:010689002C44
:01068A002C43
:01068B002D41
:01068C002D40
:01068D002D3F
:01068E002D3E
:01068F002D3D
:010690002D3C
:010691002D3B
:010692002D3A
:010693002D39
:010694002D38
:010695002D37
:010696002D36
:010697002E34
:010698002E33
:010699002E32
:01069A002E31
:01069B002E30
:01069C002E2F
:01069D002E2E
:01069E002E2D
:01069F002E2C
:0106A0002E2B
:0106A1002E2A
:0106A2002F28
:0106A3002F27
:0106A4002F26
:0106A5002F25
:0106A6002F24
:0106A7002F23
:0106A8002F22
:0106A9002F21
:0106AA002F20
:0106AB002F1F
:0106AC002F1E
:0106AD002F1D
:0106AE00301B
:0106AF00301A
:0106B0003019
:0106B1003018
:0106B2003017
:0106B3003016
:0106B4003015
:0106B5003014
:0106B6003013
:0106B7003012
:0106B8003011
:0106B9003010
:0106BA00310E
:0106BB00310D
:0106BC00310C
:0106BD00310B
:0106BE00310A
:0106BF003109
:0106C0003108
:0106C1003107
:0106C2003106
:0106C3003105
:0106C4003104
:0106C5003103
:0106C6003102
:0106C7003200
:0106C80032FF
:0106C90032FE
:0106CA0032FD
:0106CB0032FC
:0106CC0032FB
:0106CD0032FA
:0106CE0032F9
:0106CF0032F8
:0106D00032F7
:0106D10032F6
:0106D20032F5
:0106D30032F4
:0106D40033F2
:0106D50033F1
:0106D60033F0
:0106D70033EF
:0106D80033EE
:0106D90033ED
:0106DA0033EC
:0106DB0033EB
:0106DC0033EA
:0106DD0033E9
:0106DE0033E8
:0106DF0033E7
:0106E00033E6
:0106E10034E4
:0106E20034E3
:0106E30034E2
:0106E40034E1
:0106E50034E0
:0106E60034DF
:0106E70034DE
:0106E80034DD
:0106E90034DC
:0106EA0034DB
:0106EB0034DA
:0106EC0034D9
:0106ED0034D8
:0106EE0035D6
:0106EF0035D5
:0106F00035D4
:0106F10035D3
:0106F20035D2
:0106F30035D1
:0106F40035D0
:0106F50035CF
:0106F60035CE
:0106F70035CD
:0106F80035CC
:0106F90035CB
:0106FA0035CA
:0106FB0035C9
:0106FC0035C8
:0106FD0036C6
:0106FE0036C5
:0106FF0036C4
:0107000036C2
:0107010036C1
:0107020036C0
:0107030036BF
:0107040036BE
:0107050036BD
:0107060036BC
:0107070036BB
:0107080036BA
:0107090036B9
:01070A0036B8
:01070B0037B6
:01070C0037B5
:01070D0037B4
:01070E0037B3
:01070F0037B2
:0107100037B1
:0107110037B0
:0107120037AF
:0107130037AE
:0107140037AD
:0107150037AC
:0107160037AB
:0107170037AA
:0107180037A9
:0107190037A8
:01071A0037A7
:01071B0038A5
:01071C0038A4
:01071D0038A3
:01071E0038A2
:01071F0038A1
:0107200038A0
:01072100389F
:01072200389E
:01072300389D
:01072400389C
:01072500389B
:01072600389A
:010727003899
:010728003898
:010729003897
:01072A003896
:01072B003994
:01072C003993
:01072D003992
:01072E003991
:01072F003990
:01073000398F
:01073100398E
:01073200398D
:01073300398C
:01073400398B
:01073500398A
:010736003989
:010737003988
:010738003987
:010739003986
:01073A003985
:01073B003984
:01073C003983
:01073D003A81
:01073E003A80
:01073F003A7F
:010740003A7E
:010741003A7D
:010742003A7C
:010743003A7B
:010744003A7A
:010745003A79
:010746003A78
:010747003A77
:010748003A76
:010749003A75
:01074A003A74
:01074B003A73
:01074C003A72
:01074D003A71
:01074E003A70
:01074F003A6F
:010750003B6D
:010751003B6C
:010752003B6B
:010753003B6A
:010754003B69
:010755003B68
:010756003B67
:010757003B66
:010758003B65
:010759003B64
:01075A003B63
:01075B003B62
:01075C003B61
:01075D003B60
:01075E003B5F
:01075F003B5E
:010760003B5D
:010761003B5C
:010762003B5B
:010763003B5A
:010764003B59
:010765003C57
:010766003C56
:010767003C55
:010768003C54
:010769003C53
:01076A003C52
:01076B003C51
:01076C003C50
:01076D003C4F
:01076E003C4E
:01076F003C4D
:010770003C4C
:010771003C4B
:010772003C4A
:010773003C49
:010774003C48
:010775003C47
:010776003C46
:010777003C45
:010778003C44
:010779003C43
:01077A003C42
:01077B003C41
:01077C003C40
:01077D003C3F
:01077E003D3D
:01077F003D3C
:010780003D3B
:010781003D3A
:010782003D39
:010783003D38
:010784003D37
:010785003D36
:010786003D35
:010787003D34
:010788003D33
:010789003D32
:01078A003D31
:01078B003D30
:01078C003D2F
:01078D003D2E
:01078E003D2D
:01078F003D2C
:010790003D2B
:010791003D2A
:010792003D29
:010793003D28
:010794003D27
:010795003D26
:010796003D25
:010797003D24
:010798003D23
:010799003D22
:01079A003D21
:01079B003D20
:01079C003E1E
:01079D003E1D
:01079E003E1C
:01079F003E1B
:0107A0003E1A
:0107A1003E19
:0107A2003E18
:0107A3003E17
:0107A4003E16
:0107A5003E15
:0107A6003E14
:0107A7003E13
:0107A8003E12
:0107A9003E11
:0107AA003E10
:0107AB003E0F
:0107AC003E0E
:0107AD003E0D
:0107AE003E0C
:0107AF003E0B
:0107B0003E0A
:0107B1003E09
:0107B2003E08
:0107B3003E07
:0107B4003E06
:0107B5003E05
:0107B6003E04
:0107B7003E03
:0107B8003E02
:0107B9003E01
:0107BA003E00
:0107BB003EFF
:0107BC003EFE
:0107BD003EFD
:0107BE003EFC
:0107BF003EFB
:0107C0003EFA
:0107C1003EF9
:0107C2003EF8
:0107C3003EF7
:0107C4003EF6
:0107C5003EF5
:0107C6003FF3
:0107C7003FF2
:0107C8003FF1
:0107C9003FF0
:0107CA003FEF
:0107CB003FEE
:0107CC003FED
:0107CD003FEC
:0107CE003FEB
:0107CF003FEA
:0107D0003FE9
:0107D1003FE8
:0107D2003FE7
:0107D3003FE6
:0107D4003FE5
:0107D5003FE4
:0107D6003FE3
:0107D7003FE2
:0107D8003FE1
:0107D9003FE0
:0107DA003FDF
:0107DB003FDE
:0107DC003FDD
:0107DD003FDC
:0107DE003FDB
:0107DF003FDA
:0107E0003FD9
:0107E1003FD8
:0107E2003FD7
:0107E3003FD6
:0107E4003FD5
:0107E5003FD4
:0107E6003FD3
:0107E7003FD2
:0107E8003FD1
:0107E9003FD0
:0107EA003FCF
:0107EB003FCE
:0107EC003FCD
:0107ED003FCC
:0107EE003FCB
:0107EF003FCA
:0107F0003FC9
:0107F1003FC8
:0107F2003FC7
:0107F3003FC6
:0107F4003FC5
:0107F5003FC4
:0107F6003FC3
:0107F7003FC2
:0107F8003FC1
:0107F9003FC0
:0107FA003FBF
:0107FB003FBE
:0107FC003FBD
:0107FD003FBC
:0107FE003FBB
:0107FF003FBA
:00000001FF
